{
  "transactions": [
    {
      "hash": "0x571bdeb724ff5cf1d77fdbb2691379f926811b78472650c477a0eaa58c275de9",
      "transactionType": "CALL",
      "contractName": null,
      "contractAddress": "0x4f67E9B8e1DA5aBcb52CAb8bf5cB27034393718B",
      "function": "approve(address,uint256)",
      "arguments": [
        "0x3A579cEAE18b6AdaB1021e706E1cD158e04D4182",
        "2000000"
      ],
      "transaction": {
        "type": "0x00",
        "from": "0xc561cce071ae887a49db9f36427e74bdb0283b54",
        "to": "0x4f67e9b8e1da5abcb52cab8bf5cb27034393718b",
        "gas": "0xf90a",
        "value": "0x0",
        "data": "0x095ea7b30000000000000000000000003a579ceae18b6adab1021e706e1cd158e04d418200000000000000000000000000000000000000000000000000000000001e8480",
        "nonce": "0x0"
      },
      "additionalContracts": [],
      "isFixedGasLimit": false
    },
    {
      "hash": "0x333beb9dff71355e1f02aecd7e3f5a84dfc1d81c5f301a959d0c669ed6c07b6b",
      "transactionType": "CALL",
      "contractName": null,
      "contractAddress": "0x4f67E9B8e1DA5aBcb52CAb8bf5cB27034393718B",
      "function": "transfer(address,uint256)",
      "arguments": [
        "0x3A579cEAE18b6AdaB1021e706E1cD158e04D4182",
        "2000000"
      ],
      "transaction": {
        "type": "0x00",
        "from": "0xc561cce071ae887a49db9f36427e74bdb0283b54",
        "to": "0x4f67e9b8e1da5abcb52cab8bf5cb27034393718b",
        "gas": "0xba3e",
        "value": "0x0",
        "data": "0xa9059cbb0000000000000000000000003a579ceae18b6adab1021e706e1cd158e04d418200000000000000000000000000000000000000000000000000000000001e8480",
        "nonce": "0x1"
      },
      "additionalContracts": [],
      "isFixedGasLimit": false
    }
  ],
  "receipts": [],
  "libraries": [],
  "pending": [
    "0x571bdeb724ff5cf1d77fdbb2691379f926811b78472650c477a0eaa58c275de9",
    "0x333beb9dff71355e1f02aecd7e3f5a84dfc1d81c5f301a959d0c669ed6c07b6b"
  ],
  "returns": {},
  "timestamp": 1708892397,
  "chain": 1073,
  "multi": false,
  "commit": "b1a94d3"
}