{
  "transactions": [
    {
      "hash": "0x571bdeb724ff5cf1d77fdbb2691379f926811b78472650c477a0eaa58c275de9",
      "transactionType": "CALL",
      "contractName": null,
      "contractAddress": "0x4f67E9B8e1DA5aBcb52CAb8bf5cB27034393718B",
      "function": "approve(address,uint256)",
      "arguments": [
        "0x3A579cEAE18b6AdaB1021e706E1cD158e04D4182",
        "2000000"
      ],
      "transaction": {
        "type": "0x00",
        "from": "0xc561cce071ae887a49db9f36427e74bdb0283b54",
        "to": "0x4f67e9b8e1da5abcb52cab8bf5cb27034393718b",
        "gas": "0xf90a",
        "value": "0x0",
        "data": "0x095ea7b30000000000000000000000003a579ceae18b6adab1021e706e1cd158e04d418200000000000000000000000000000000000000000000000000000000001e8480",
        "nonce": "0x0"
      },
      "additionalContracts": [],
      "isFixedGasLimit": false
    },
    {
      "hash": "0x333beb9dff71355e1f02aecd7e3f5a84dfc1d81c5f301a959d0c669ed6c07b6b",
      "transactionType": "CALL",
      "contractName": null,
      "contractAddress": "0x4f67E9B8e1DA5aBcb52CAb8bf5cB27034393718B",
      "function": "transfer(address,uint256)",
      "arguments": [
        "0x3A579cEAE18b6AdaB1021e706E1cD158e04D4182",
        "2000000"
      ],
      "transaction": {
        "type": "0x00",
        "from": "0xc561cce071ae887a49db9f36427e74bdb0283b54",
        "to": "0x4f67e9b8e1da5abcb52cab8bf5cb27034393718b",
        "gas": "0xba3e",
        "value": "0x0",
        "data": "0xa9059cbb0000000000000000000000003a579ceae18b6adab1021e706e1cd158e04d418200000000000000000000000000000000000000000000000000000000001e8480",
        "nonce": "0x1"
      },
      "additionalContracts": [],
      "isFixedGasLimit": false
    }
  ],
  "receipts": [
    {
      "transactionHash": "0x571bdeb724ff5cf1d77fdbb2691379f926811b78472650c477a0eaa58c275de9",
      "transactionIndex": "0x0",
      "blockHash": "0xe70c3c0bf08b28e5ccc3fc4babedf07a92c7162861297a58119c94f9bb09a43c",
      "blockNumber": "0x8eb1c",
      "from": "0xc561cCE071AE887A49Db9F36427E74bDb0283B54",
      "to": "0x4f67E9B8e1DA5aBcb52CAb8bf5cB27034393718B",
      "cumulativeGasUsed": "0xac1a",
      "gasUsed": "0xac1a",
      "contractAddress": "0x0000000000000000000000000000000000000000",
      "logs": [
        {
          "address": "0x4f67E9B8e1DA5aBcb52CAb8bf5cB27034393718B",
          "topics": [
            "0x8c5be1e5ebec7d5bd14f71427d1e84f3dd0314c0f7b2291e5b200ac8c7c3b925",
            "0x000000000000000000000000c561cce071ae887a49db9f36427e74bdb0283b54",
            "0x0000000000000000000000003a579ceae18b6adab1021e706e1cd158e04d4182"
          ],
          "data": "0x00000000000000000000000000000000000000000000000000000000001e8480",
          "blockHash": "0xe70c3c0bf08b28e5ccc3fc4babedf07a92c7162861297a58119c94f9bb09a43c",
          "blockNumber": "0x8eb1c",
          "transactionHash": "0x571bdeb724ff5cf1d77fdbb2691379f926811b78472650c477a0eaa58c275de9",
          "transactionIndex": "0x0",
          "logIndex": "0x0"
        }
      ],
      "status": "0x1",
      "logsBloom": "0x00000000000000000000000000000000000000000000000000000000000000000000000000000000000000000000000000000000000000000000001000200000000000000000000000000000000000400200000000000000000000000000000080000000000000000000000000000000000000000000000000000000000000200000000000080000000000000000000000001004000000000000000000000000020000000000000000000000000000000000000000000000000000000000000000000000000000000000000000000000000000000000000000000000020000000010000000000000000000000000000000000000000000000000000000000000",
      "type": "0x0",
      "effectiveGasPrice": "0xe8d4a51000"
    },
    {
      "transactionHash": "0x333beb9dff71355e1f02aecd7e3f5a84dfc1d81c5f301a959d0c669ed6c07b6b",
      "transactionIndex": "0x1",
      "blockHash": "0xe70c3c0bf08b28e5ccc3fc4babedf07a92c7162861297a58119c94f9bb09a43c",
      "blockNumber": "0x8eb1c",
      "from": "0xc561cCE071AE887A49Db9F36427E74bDb0283B54",
      "to": "0x4f67E9B8e1DA5aBcb52CAb8bf5cB27034393718B",
      "cumulativeGasUsed": "0x12351",
      "gasUsed": "0x7737",
      "contractAddress": "0x0000000000000000000000000000000000000000",
      "logs": [
        {
          "address": "0x4f67E9B8e1DA5aBcb52CAb8bf5cB27034393718B",
          "topics": [
            "0xddf252ad1be2c89b69c2b068fc378daa952ba7f163c4a11628f55a4df523b3ef",
            "0x000000000000000000000000c561cce071ae887a49db9f36427e74bdb0283b54",
            "0x0000000000000000000000003a579ceae18b6adab1021e706e1cd158e04d4182"
          ],
          "data": "0x00000000000000000000000000000000000000000000000000000000001e8480",
          "blockHash": "0xe70c3c0bf08b28e5ccc3fc4babedf07a92c7162861297a58119c94f9bb09a43c",
          "blockNumber": "0x8eb1c",
          "transactionHash": "0x333beb9dff71355e1f02aecd7e3f5a84dfc1d81c5f301a959d0c669ed6c07b6b",
          "transactionIndex": "0x1",
          "logIndex": "0x1"
        }
      ],
      "status": "0x1",
      "logsBloom": "0x00000000000000000000000000000000000000000000000000000000000000000000000000000000000000000000000000000000000000000000001000000000000000000000000000000008000000400200000000000000000000000000000080000000000000000000000000000000000000000000000000000010000000200000000000080000000000000000000000001004000000000000000000000000000000000000000000000000000000000000000000000000000000000000000000000002000000000000000000000000000000000000000000000000020000000000000000000000000000000000000000000000000000000000000000000000",
      "type": "0x0",
      "effectiveGasPrice": "0xe8d4a51000"
    }
  ],
  "libraries": [],
  "pending": [],
  "returns": {},
  "timestamp": 1708892404,
  "chain": 1073,
  "multi": false,
  "commit": "b1a94d3"
}