{
  "transactions": [
    {
      "hash": "0x8b0d8cc4fb0dc8b36326dea721621f254788214d80775b1ce3aa1b911553d7b5",
      "transactionType": "CALL",
      "contractName": null,
      "contractAddress": "0x566573ebfeefb2f94551e68e37a12c6056c31030",
      "function": "setMinimumLockDuration(uint256)",
      "arguments": [
        "604800"
      ],
      "transaction": {
        "from": "0xded212b8bab662b98f49e757cbb409bb7808dc10",
        "to": "0x566573ebfeefb2f94551e68e37a12c6056c31030",
        "gas": "0xc6ae",
        "value": "0x0",
        "input": "0x04f6c0ef0000000000000000000000000000000000000000000000000000000000093a80",
        "nonce": "0x171",
        "chainId": "0x433"
      },
      "additionalContracts": [],
      "isFixedGasLimit": false
    }
  ],
  "receipts": [
    {
      "status": "0x1",
      "cumulativeGasUsed": "0x6642",
      "logs": [
        {
          "address": "0x566573ebfeefb2f94551e68e37a12c6056c31030",
          "topics": [
            "0x4286a1948646a846294d28b6f983a8b48808126ee5c6a7e73758ba14bc8781eb"
          ],
          "data": "0x0000000000000000000000000000000000000000000000000000000000093a80",
          "blockHash": "0xacc1e63d36cd18c317d3ef96e9b2c6392f857bb2131939bdbaf9f7b3865ebb9a",
          "blockNumber": "0x45650",
          "transactionHash": "0x8b0d8cc4fb0dc8b36326dea721621f254788214d80775b1ce3aa1b911553d7b5",
          "transactionIndex": "0x0",
          "logIndex": "0x0",
          "removed": false
        }
      ],
      "logsBloom": "0x00000000000000000000000000000000000000000000000000000000000000000000000000000000000000000000000000000000000000000000000000000000000100000000000010000000000000000000000000000000000000000000000000000000000000000000000000000000000000000000000000000000000000000000000000000000000000000000000000000000000000000000000000000000000000000000000000000000000000000000000000000000000000000000000000000000000000000000000000020000000000000000000100000000000000000000000000000000000000000000000020000000000000000000000008000000",
      "type": "0x0",
      "transactionHash": "0x8b0d8cc4fb0dc8b36326dea721621f254788214d80775b1ce3aa1b911553d7b5",
      "transactionIndex": "0x0",
      "blockHash": "0xacc1e63d36cd18c317d3ef96e9b2c6392f857bb2131939bdbaf9f7b3865ebb9a",
      "blockNumber": "0x45650",
      "gasUsed": "0x6642",
      "effectiveGasPrice": "0x2540be400",
      "from": "0xded212b8bab662b98f49e757cbb409bb7808dc10",
      "to": "0x566573ebfeefb2f94551e68e37a12c6056c31030",
      "contractAddress": "0x0000000000000000000000000000000000000000"
    }
  ],
  "libraries": [],
  "pending": [],
  "returns": {},
  "timestamp": 1722579117,
  "chain": 1075,
  "commit": "ab490e7"
}