{
  "transactions": [
    {
      "hash": "0x0ba78081e4f6aab264870c33d10498d3744fd0aa90fc448531c55951c42c5197",
      "transactionType": "CALL",
      "contractName": null,
      "contractAddress": "0xf7c0576759f686179ad1E451CCDCF8687568f77A",
      "function": "add(address,address)",
      "arguments": [
        "0xfd0713f301b410A7D9f502C10e89BEE57B026997",
        "0x0000000000000000000000000000000000000000"
      ],
      "transaction": {
        "type": "0x00",
        "from": "0xded212b8bab662b98f49e757cbb409bb7808dc10",
        "to": "0xf7c0576759f686179ad1e451ccdcf8687568f77a",
        "gas": "0x229ae",
        "value": "0x0",
        "data": "0x52c28fab000000000000000000000000fd0713f301b410a7d9f502c10e89bee57b0269970000000000000000000000000000000000000000000000000000000000000000",
        "nonce": "0x85"
      },
      "additionalContracts": [],
      "isFixedGasLimit": false
    }
  ],
  "receipts": [
    {
      "transactionHash": "0x0ba78081e4f6aab264870c33d10498d3744fd0aa90fc448531c55951c42c5197",
      "transactionIndex": "0x0",
      "blockHash": "0xb49c7be4be1377d8a9eea3c8d56be1279e844b51ad9235b1844c72c63c3ceaaf",
      "blockNumber": "0xc8440",
      "from": "0xdeD212B8BAb662B98f49e757CbB409BB7808dc10",
      "to": "0xf7c0576759f686179ad1E451CCDCF8687568f77A",
      "cumulativeGasUsed": "0x14e10",
      "gasUsed": "0x14e10",
      "contractAddress": "0x0000000000000000000000000000000000000000",
      "logs": [
        {
          "address": "0xf7c0576759f686179ad1E451CCDCF8687568f77A",
          "topics": [
            "0x9d7bf7d496ad44415bf088986e68bcfc590380ab2bf411124744b485329f2fc6",
            "0x0000000000000000000000000000000000000000000000000000000000000000",
            "0x000000000000000000000000fd0713f301b410a7d9f502c10e89bee57b026997"
          ],
          "data": "0x",
          "blockHash": "0xb49c7be4be1377d8a9eea3c8d56be1279e844b51ad9235b1844c72c63c3ceaaf",
          "blockNumber": "0xc8440",
          "transactionHash": "0x0ba78081e4f6aab264870c33d10498d3744fd0aa90fc448531c55951c42c5197",
          "transactionIndex": "0x0",
          "logIndex": "0x0"
        }
      ],
      "status": "0x1",
      "logsBloom": "0x00000000000000000000000000000400000000000000000000000000000000000000000000000000000000000000000000000000000010000100000000000000000000000000000000000000000000000000000000000000000000000000000000000000020000000020000000000800000000000000000000000000008000000000000000000000000000000000000000008000000000000000000000000000000000000000000000000000000000000000000000000000000000000000000000000000000000000000000000001000020000000000000000000000800020000000000000000000000000000000000000000000000000000000000000000000",
      "type": "0x0",
      "effectiveGasPrice": "0xe8d4a51000"
    }
  ],
  "libraries": [],
  "pending": [],
  "returns": {},
  "timestamp": 1713874692,
  "chain": 1073,
  "commit": "01fc7ce"
}