{
  "transactions": [
    {
      "hash": "0xf3172b46cdd25aa8aea2720690798a81e19368a33cae262f491aeb93761a3068",
      "transactionType": "CALL",
      "contractName": null,
      "contractAddress": "0xf7c0576759f686179ad1E451CCDCF8687568f77A",
      "function": "add(address,address)",
      "arguments": [
        "0x3a315A0981c2bbc8D00D4296599fB21824FE6E50",
        "0x0000000000000000000000000000000000000000"
      ],
      "transaction": {
        "type": "0x00",
        "from": "0xded212b8bab662b98f49e757cbb409bb7808dc10",
        "to": "0xf7c0576759f686179ad1e451ccdcf8687568f77a",
        "gas": "0x1cd6c",
        "value": "0x0",
        "data": "0x52c28fab0000000000000000000000003a315a0981c2bbc8d00d4296599fb21824fe6e500000000000000000000000000000000000000000000000000000000000000000",
        "nonce": "0x86"
      },
      "additionalContracts": [],
      "isFixedGasLimit": false
    }
  ],
  "receipts": [
    {
      "transactionHash": "0xf3172b46cdd25aa8aea2720690798a81e19368a33cae262f491aeb93761a3068",
      "transactionIndex": "0x0",
      "blockHash": "0x053f1829fd67d76c30c0a72a104bd75fa418326fab170c8a81961cfa0ceeddf9",
      "blockNumber": "0xc84bf",
      "from": "0xdeD212B8BAb662B98f49e757CbB409BB7808dc10",
      "to": "0xf7c0576759f686179ad1E451CCDCF8687568f77A",
      "cumulativeGasUsed": "0x10b44",
      "gasUsed": "0x10b44",
      "contractAddress": "0x0000000000000000000000000000000000000000",
      "logs": [
        {
          "address": "0xf7c0576759f686179ad1E451CCDCF8687568f77A",
          "topics": [
            "0x9d7bf7d496ad44415bf088986e68bcfc590380ab2bf411124744b485329f2fc6",
            "0x0000000000000000000000000000000000000000000000000000000000000001",
            "0x0000000000000000000000003a315a0981c2bbc8d00d4296599fb21824fe6e50"
          ],
          "data": "0x",
          "blockHash": "0x053f1829fd67d76c30c0a72a104bd75fa418326fab170c8a81961cfa0ceeddf9",
          "blockNumber": "0xc84bf",
          "transactionHash": "0xf3172b46cdd25aa8aea2720690798a81e19368a33cae262f491aeb93761a3068",
          "transactionIndex": "0x0",
          "logIndex": "0x0"
        }
      ],
      "status": "0x1",
      "logsBloom": "0x00000000000000000000000000000000000000000000000000000000000000000000000000000080100000000000000000000000000014000100000000040000000000000000000000000000000000000000000000040000000000000000000000000000000000000020000000000000000000000000000000000000008000000000000000000000000000000000000000000000000000000000000000000000000000000000000000000000000000000000000000000000000000000000000000000000000000000000000000001000000000000000000000000000800040000000000000000000000000000000000000000000000000000000000000000000",
      "type": "0x0",
      "effectiveGasPrice": "0xe8d4a51000"
    }
  ],
  "libraries": [],
  "pending": [],
  "returns": {},
  "timestamp": 1713878395,
  "chain": 1073,
  "commit": "01fc7ce"
}