{
  "transactions": [
    {
      "hash": "0xea622ecfd7825d40203e34ee9a8f54b8564b256ab089b6444301b9f3d502b6e6",
      "transactionType": "CALL",
      "contractName": null,
      "contractAddress": "0xaed6dc9b5ae8ac8149403d2659de1239655e6d4a",
      "function": "updateAll(uint256[])",
      "arguments": [
        "[0, 1, 2, 3, 4]"
      ],
      "transaction": {
        "from": "0xded212b8bab662b98f49e757cbb409bb7808dc10",
        "to": "0xaed6dc9b5ae8ac8149403d2659de1239655e6d4a",
        "gas": "0x348e6",
        "value": "0x0",
        "input": "0x04093c5b0000000000000000000000000000000000000000000000000000000000000020000000000000000000000000000000000000000000000000000000000000000500000000000000000000000000000000000000000000000000000000000000000000000000000000000000000000000000000000000000000000000000000001000000000000000000000000000000000000000000000000000000000000000200000000000000000000000000000000000000000000000000000000000000030000000000000000000000000000000000000000000000000000000000000004",
        "nonce": "0xaf",
        "chainId": "0x2276"
      },
      "additionalContracts": [],
      "isFixedGasLimit": false
    },
    {
      "hash": "0x8e1f823b78a966c11abeddcf536524aa631c59ecaf01aedc967d2902ff74863b",
      "transactionType": "CALL",
      "contractName": null,
      "contractAddress": "0xaed6dc9b5ae8ac8149403d2659de1239655e6d4a",
      "function": "setLumPerSecond(uint96)",
      "arguments": [
        "61000000000000000"
      ],
      "transaction": {
        "from": "0xded212b8bab662b98f49e757cbb409bb7808dc10",
        "to": "0xaed6dc9b5ae8ac8149403d2659de1239655e6d4a",
        "gas": "0xc7c8",
        "value": "0x0",
        "input": "0xff1b3bb600000000000000000000000000000000000000000000000000d8b72d434c8000",
        "nonce": "0xb0",
        "chainId": "0x2276"
      },
      "additionalContracts": [],
      "isFixedGasLimit": false
    }
  ],
  "receipts": [
    {
      "status": "0x1",
      "cumulativeGasUsed": "0x1572d",
      "logs": [
        {
          "address": "0x34a85ddc4e30818e44e6f4a8ee39d8cba9a60fb3",
          "topics": [
            "0xddf252ad1be2c89b69c2b068fc378daa952ba7f163c4a11628f55a4df523b3ef",
            "0x000000000000000000000000aed6dc9b5ae8ac8149403d2659de1239655e6d4a",
            "0x000000000000000000000000fc9a5c446f7c3db0d94e29cafa1ef13c91d1f56f"
          ],
          "data": "0x0000000000000000000000000000000000000000000000000000000000000000",
          "blockHash": "0x75123b365692287c43c636b5ef4424a9de4a100b4f1d0e0662f9d38172aac4ef",
          "blockNumber": "0x51185",
          "transactionHash": "0xea622ecfd7825d40203e34ee9a8f54b8564b256ab089b6444301b9f3d502b6e6",
          "transactionIndex": "0x0",
          "logIndex": "0x0",
          "removed": false
        },
        {
          "address": "0x34a85ddc4e30818e44e6f4a8ee39d8cba9a60fb3",
          "topics": [
            "0xddf252ad1be2c89b69c2b068fc378daa952ba7f163c4a11628f55a4df523b3ef",
            "0x000000000000000000000000aed6dc9b5ae8ac8149403d2659de1239655e6d4a",
            "0x000000000000000000000000fc9a5c446f7c3db0d94e29cafa1ef13c91d1f56f"
          ],
          "data": "0x0000000000000000000000000000000000000000000000000000000000000000",
          "blockHash": "0x75123b365692287c43c636b5ef4424a9de4a100b4f1d0e0662f9d38172aac4ef",
          "blockNumber": "0x51185",
          "transactionHash": "0xea622ecfd7825d40203e34ee9a8f54b8564b256ab089b6444301b9f3d502b6e6",
          "transactionIndex": "0x0",
          "logIndex": "0x1",
          "removed": false
        },
        {
          "address": "0x34a85ddc4e30818e44e6f4a8ee39d8cba9a60fb3",
          "topics": [
            "0xddf252ad1be2c89b69c2b068fc378daa952ba7f163c4a11628f55a4df523b3ef",
            "0x000000000000000000000000aed6dc9b5ae8ac8149403d2659de1239655e6d4a",
            "0x000000000000000000000000fc9a5c446f7c3db0d94e29cafa1ef13c91d1f56f"
          ],
          "data": "0x0000000000000000000000000000000000000000000000000000000000000000",
          "blockHash": "0x75123b365692287c43c636b5ef4424a9de4a100b4f1d0e0662f9d38172aac4ef",
          "blockNumber": "0x51185",
          "transactionHash": "0xea622ecfd7825d40203e34ee9a8f54b8564b256ab089b6444301b9f3d502b6e6",
          "transactionIndex": "0x0",
          "logIndex": "0x2",
          "removed": false
        },
        {
          "address": "0x34a85ddc4e30818e44e6f4a8ee39d8cba9a60fb3",
          "topics": [
            "0xddf252ad1be2c89b69c2b068fc378daa952ba7f163c4a11628f55a4df523b3ef",
            "0x000000000000000000000000aed6dc9b5ae8ac8149403d2659de1239655e6d4a",
            "0x000000000000000000000000fc9a5c446f7c3db0d94e29cafa1ef13c91d1f56f"
          ],
          "data": "0x0000000000000000000000000000000000000000000000000000000000000000",
          "blockHash": "0x75123b365692287c43c636b5ef4424a9de4a100b4f1d0e0662f9d38172aac4ef",
          "blockNumber": "0x51185",
          "transactionHash": "0xea622ecfd7825d40203e34ee9a8f54b8564b256ab089b6444301b9f3d502b6e6",
          "transactionIndex": "0x0",
          "logIndex": "0x3",
          "removed": false
        }
      ],
      "logsBloom": "0x00000000000000000000000000000000000000000000000000000000000000000000000000008000000000000000000000000000000000000000000000000100000000000000000000000008000000000000000000000010000000000000000000000000000000010040000000000000000000000000000000000010000000000000000000000000000000000000000100000000000000000000000000000000000000000000000000000000000000000008800000000000000000000000000000000002000000000000000000000000000000000010000000000000000000000000000000000000000000000000000000000000000000000000000000000000",
      "type": "0x0",
      "transactionHash": "0xea622ecfd7825d40203e34ee9a8f54b8564b256ab089b6444301b9f3d502b6e6",
      "transactionIndex": "0x0",
      "blockHash": "0x75123b365692287c43c636b5ef4424a9de4a100b4f1d0e0662f9d38172aac4ef",
      "blockNumber": "0x51185",
      "gasUsed": "0x1572d",
      "effectiveGasPrice": "0x2540be400",
      "from": "0xded212b8bab662b98f49e757cbb409bb7808dc10",
      "to": "0xaed6dc9b5ae8ac8149403d2659de1239655e6d4a",
      "contractAddress": "0x0000000000000000000000000000000000000000"
    },
    {
      "status": "0x1",
      "cumulativeGasUsed": "0x6767",
      "logs": [
        {
          "address": "0xaed6dc9b5ae8ac8149403d2659de1239655e6d4a",
          "topics": [
            "0xdd8b7b258131f9326b8f16978dd54fbe5d1e19e6c80e176363ed728ff4e12ae0"
          ],
          "data": "0x00000000000000000000000000000000000000000000000000d8b72d434c8000",
          "blockHash": "0x1f73153ecd60edb3b4ad47a8b774006acc50afb6692e073d6f26987698601961",
          "blockNumber": "0x51186",
          "transactionHash": "0x8e1f823b78a966c11abeddcf536524aa631c59ecaf01aedc967d2902ff74863b",
          "transactionIndex": "0x0",
          "logIndex": "0x0",
          "removed": false
        }
      ],
      "logsBloom": "0x08000000000000000000000000000000000000000000000000000000000000000000000000000000000000000000001000000000000000000000000000000000008000000000000000000000000000000000000000000000000000000000000000000000000000000000000000000000000000000000000000000000000000000000000000000000000000000000000000000000000000000000000000000000000000000000000000000000000000000000000000000000000000000000000100000000000000000000000000000000000000000000000000000000000000000000000000000000000000000000000000000000000000000000000011000000",
      "type": "0x0",
      "transactionHash": "0x8e1f823b78a966c11abeddcf536524aa631c59ecaf01aedc967d2902ff74863b",
      "transactionIndex": "0x0",
      "blockHash": "0x1f73153ecd60edb3b4ad47a8b774006acc50afb6692e073d6f26987698601961",
      "blockNumber": "0x51186",
      "gasUsed": "0x6767",
      "effectiveGasPrice": "0x2540be400",
      "from": "0xded212b8bab662b98f49e757cbb409bb7808dc10",
      "to": "0xaed6dc9b5ae8ac8149403d2659de1239655e6d4a",
      "contractAddress": "0x0000000000000000000000000000000000000000"
    }
  ],
  "libraries": [],
  "pending": [],
  "returns": {},
  "timestamp": 1721239339,
  "chain": 8822,
  "commit": "277afeb"
}