{
  "transactions": [
    {
      "hash": "0x8952bd4e5789c75ebf79661965d79a471eb6c29f68f1251401865b29c913caa0",
      "transactionType": "CALL",
      "contractName": null,
      "contractAddress": "0xaed6dc9b5ae8ac8149403d2659de1239655e6d4a",
      "function": "updateAll(uint256[])",
      "arguments": [
        "[0, 1, 2, 3, 4, 5, 6, 7]"
      ],
      "transaction": {
        "from": "0xded212b8bab662b98f49e757cbb409bb7808dc10",
        "to": "0xaed6dc9b5ae8ac8149403d2659de1239655e6d4a",
        "gas": "0x52e2e",
        "value": "0x0",
        "input": "0x04093c5b0000000000000000000000000000000000000000000000000000000000000020000000000000000000000000000000000000000000000000000000000000000800000000000000000000000000000000000000000000000000000000000000000000000000000000000000000000000000000000000000000000000000000001000000000000000000000000000000000000000000000000000000000000000200000000000000000000000000000000000000000000000000000000000000030000000000000000000000000000000000000000000000000000000000000004000000000000000000000000000000000000000000000000000000000000000500000000000000000000000000000000000000000000000000000000000000060000000000000000000000000000000000000000000000000000000000000007",
        "nonce": "0xce",
        "chainId": "0x2276"
      },
      "additionalContracts": [],
      "isFixedGasLimit": false
    },
    {
      "hash": "0xed5c04c66ab56711dee4a6d4540137140dc474872942d813abe1768301156b46",
      "transactionType": "CALL",
      "contractName": null,
      "contractAddress": "0xaed6dc9b5ae8ac8149403d2659de1239655e6d4a",
      "function": "setLumPerSecond(uint96)",
      "arguments": [
        "61480000000000000"
      ],
      "transaction": {
        "from": "0xded212b8bab662b98f49e757cbb409bb7808dc10",
        "to": "0xaed6dc9b5ae8ac8149403d2659de1239655e6d4a",
        "gas": "0xc7c8",
        "value": "0x0",
        "input": "0xff1b3bb600000000000000000000000000000000000000000000000000da6bbbf8ca8000",
        "nonce": "0xcf",
        "chainId": "0x2276"
      },
      "additionalContracts": [],
      "isFixedGasLimit": false
    }
  ],
  "receipts": [
    {
      "status": "0x1",
      "cumulativeGasUsed": "0x2236b",
      "logs": [
        {
          "address": "0x34a85ddc4e30818e44e6f4a8ee39d8cba9a60fb3",
          "topics": [
            "0xddf252ad1be2c89b69c2b068fc378daa952ba7f163c4a11628f55a4df523b3ef",
            "0x000000000000000000000000aed6dc9b5ae8ac8149403d2659de1239655e6d4a",
            "0x000000000000000000000000fc9a5c446f7c3db0d94e29cafa1ef13c91d1f56f"
          ],
          "data": "0x0000000000000000000000000000000000000000000000000000000000000000",
          "blockHash": "0x89a94e9da830739f520747cde18fd2514540162157a027ddfb2083f7b957b596",
          "blockNumber": "0x5b33c",
          "transactionHash": "0x8952bd4e5789c75ebf79661965d79a471eb6c29f68f1251401865b29c913caa0",
          "transactionIndex": "0x0",
          "logIndex": "0x0",
          "removed": false
        },
        {
          "address": "0x34a85ddc4e30818e44e6f4a8ee39d8cba9a60fb3",
          "topics": [
            "0xddf252ad1be2c89b69c2b068fc378daa952ba7f163c4a11628f55a4df523b3ef",
            "0x000000000000000000000000aed6dc9b5ae8ac8149403d2659de1239655e6d4a",
            "0x000000000000000000000000fc9a5c446f7c3db0d94e29cafa1ef13c91d1f56f"
          ],
          "data": "0x0000000000000000000000000000000000000000000000000000000000000000",
          "blockHash": "0x89a94e9da830739f520747cde18fd2514540162157a027ddfb2083f7b957b596",
          "blockNumber": "0x5b33c",
          "transactionHash": "0x8952bd4e5789c75ebf79661965d79a471eb6c29f68f1251401865b29c913caa0",
          "transactionIndex": "0x0",
          "logIndex": "0x1",
          "removed": false
        },
        {
          "address": "0x34a85ddc4e30818e44e6f4a8ee39d8cba9a60fb3",
          "topics": [
            "0xddf252ad1be2c89b69c2b068fc378daa952ba7f163c4a11628f55a4df523b3ef",
            "0x000000000000000000000000aed6dc9b5ae8ac8149403d2659de1239655e6d4a",
            "0x000000000000000000000000fc9a5c446f7c3db0d94e29cafa1ef13c91d1f56f"
          ],
          "data": "0x0000000000000000000000000000000000000000000000000000000000000000",
          "blockHash": "0x89a94e9da830739f520747cde18fd2514540162157a027ddfb2083f7b957b596",
          "blockNumber": "0x5b33c",
          "transactionHash": "0x8952bd4e5789c75ebf79661965d79a471eb6c29f68f1251401865b29c913caa0",
          "transactionIndex": "0x0",
          "logIndex": "0x2",
          "removed": false
        },
        {
          "address": "0x34a85ddc4e30818e44e6f4a8ee39d8cba9a60fb3",
          "topics": [
            "0xddf252ad1be2c89b69c2b068fc378daa952ba7f163c4a11628f55a4df523b3ef",
            "0x000000000000000000000000aed6dc9b5ae8ac8149403d2659de1239655e6d4a",
            "0x000000000000000000000000fc9a5c446f7c3db0d94e29cafa1ef13c91d1f56f"
          ],
          "data": "0x0000000000000000000000000000000000000000000000000000000000000000",
          "blockHash": "0x89a94e9da830739f520747cde18fd2514540162157a027ddfb2083f7b957b596",
          "blockNumber": "0x5b33c",
          "transactionHash": "0x8952bd4e5789c75ebf79661965d79a471eb6c29f68f1251401865b29c913caa0",
          "transactionIndex": "0x0",
          "logIndex": "0x3",
          "removed": false
        },
        {
          "address": "0x34a85ddc4e30818e44e6f4a8ee39d8cba9a60fb3",
          "topics": [
            "0xddf252ad1be2c89b69c2b068fc378daa952ba7f163c4a11628f55a4df523b3ef",
            "0x000000000000000000000000aed6dc9b5ae8ac8149403d2659de1239655e6d4a",
            "0x000000000000000000000000fc9a5c446f7c3db0d94e29cafa1ef13c91d1f56f"
          ],
          "data": "0x0000000000000000000000000000000000000000000000000000000000000000",
          "blockHash": "0x89a94e9da830739f520747cde18fd2514540162157a027ddfb2083f7b957b596",
          "blockNumber": "0x5b33c",
          "transactionHash": "0x8952bd4e5789c75ebf79661965d79a471eb6c29f68f1251401865b29c913caa0",
          "transactionIndex": "0x0",
          "logIndex": "0x4",
          "removed": false
        },
        {
          "address": "0x34a85ddc4e30818e44e6f4a8ee39d8cba9a60fb3",
          "topics": [
            "0xddf252ad1be2c89b69c2b068fc378daa952ba7f163c4a11628f55a4df523b3ef",
            "0x000000000000000000000000aed6dc9b5ae8ac8149403d2659de1239655e6d4a",
            "0x000000000000000000000000fc9a5c446f7c3db0d94e29cafa1ef13c91d1f56f"
          ],
          "data": "0x0000000000000000000000000000000000000000000000000000000000000000",
          "blockHash": "0x89a94e9da830739f520747cde18fd2514540162157a027ddfb2083f7b957b596",
          "blockNumber": "0x5b33c",
          "transactionHash": "0x8952bd4e5789c75ebf79661965d79a471eb6c29f68f1251401865b29c913caa0",
          "transactionIndex": "0x0",
          "logIndex": "0x5",
          "removed": false
        },
        {
          "address": "0x34a85ddc4e30818e44e6f4a8ee39d8cba9a60fb3",
          "topics": [
            "0xddf252ad1be2c89b69c2b068fc378daa952ba7f163c4a11628f55a4df523b3ef",
            "0x000000000000000000000000aed6dc9b5ae8ac8149403d2659de1239655e6d4a",
            "0x000000000000000000000000fc9a5c446f7c3db0d94e29cafa1ef13c91d1f56f"
          ],
          "data": "0x0000000000000000000000000000000000000000000000000000000000000000",
          "blockHash": "0x89a94e9da830739f520747cde18fd2514540162157a027ddfb2083f7b957b596",
          "blockNumber": "0x5b33c",
          "transactionHash": "0x8952bd4e5789c75ebf79661965d79a471eb6c29f68f1251401865b29c913caa0",
          "transactionIndex": "0x0",
          "logIndex": "0x6",
          "removed": false
        },
        {
          "address": "0x34a85ddc4e30818e44e6f4a8ee39d8cba9a60fb3",
          "topics": [
            "0xddf252ad1be2c89b69c2b068fc378daa952ba7f163c4a11628f55a4df523b3ef",
            "0x000000000000000000000000aed6dc9b5ae8ac8149403d2659de1239655e6d4a",
            "0x000000000000000000000000fc9a5c446f7c3db0d94e29cafa1ef13c91d1f56f"
          ],
          "data": "0x0000000000000000000000000000000000000000000000000000000000000000",
          "blockHash": "0x89a94e9da830739f520747cde18fd2514540162157a027ddfb2083f7b957b596",
          "blockNumber": "0x5b33c",
          "transactionHash": "0x8952bd4e5789c75ebf79661965d79a471eb6c29f68f1251401865b29c913caa0",
          "transactionIndex": "0x0",
          "logIndex": "0x7",
          "removed": false
        }
      ],
      "logsBloom": "0x00000000000000000000000000000000000000000000000000000000000000000000000000008000000000000000000000000000000000000000000000000100000000000000000000000008000000000000000000000010000000000000000000000000000000010040000000000000000000000000000000000010000000000000000000000000000000000000000100000000000000000000000000000000000000000000000000000000000000000008800000000000000000000000000000000002000000000000000000000000000000000010000000000000000000000000000000000000000000000000000000000000000000000000000000000000",
      "type": "0x0",
      "transactionHash": "0x8952bd4e5789c75ebf79661965d79a471eb6c29f68f1251401865b29c913caa0",
      "transactionIndex": "0x0",
      "blockHash": "0x89a94e9da830739f520747cde18fd2514540162157a027ddfb2083f7b957b596",
      "blockNumber": "0x5b33c",
      "gasUsed": "0x2236b",
      "effectiveGasPrice": "0x2540be400",
      "from": "0xded212b8bab662b98f49e757cbb409bb7808dc10",
      "to": "0xaed6dc9b5ae8ac8149403d2659de1239655e6d4a",
      "contractAddress": "0x0000000000000000000000000000000000000000"
    },
    {
      "status": "0x1",
      "cumulativeGasUsed": "0x6767",
      "logs": [
        {
          "address": "0xaed6dc9b5ae8ac8149403d2659de1239655e6d4a",
          "topics": [
            "0xdd8b7b258131f9326b8f16978dd54fbe5d1e19e6c80e176363ed728ff4e12ae0"
          ],
          "data": "0x00000000000000000000000000000000000000000000000000da6bbbf8ca8000",
          "blockHash": "0x49fa1f58d3b8555412d5714113963111ab8fd695f488efca2dfa0d09665d87c0",
          "blockNumber": "0x5b33d",
          "transactionHash": "0xed5c04c66ab56711dee4a6d4540137140dc474872942d813abe1768301156b46",
          "transactionIndex": "0x0",
          "logIndex": "0x0",
          "removed": false
        }
      ],
      "logsBloom": "0x08000000000000000000000000000000000000000000000000000000000000000000000000000000000000000000001000000000000000000000000000000000008000000000000000000000000000000000000000000000000000000000000000000000000000000000000000000000000000000000000000000000000000000000000000000000000000000000000000000000000000000000000000000000000000000000000000000000000000000000000000000000000000000000000100000000000000000000000000000000000000000000000000000000000000000000000000000000000000000000000000000000000000000000000011000000",
      "type": "0x0",
      "transactionHash": "0xed5c04c66ab56711dee4a6d4540137140dc474872942d813abe1768301156b46",
      "transactionIndex": "0x0",
      "blockHash": "0x49fa1f58d3b8555412d5714113963111ab8fd695f488efca2dfa0d09665d87c0",
      "blockNumber": "0x5b33d",
      "gasUsed": "0x6767",
      "effectiveGasPrice": "0x2540be400",
      "from": "0xded212b8bab662b98f49e757cbb409bb7808dc10",
      "to": "0xaed6dc9b5ae8ac8149403d2659de1239655e6d4a",
      "contractAddress": "0x0000000000000000000000000000000000000000"
    }
  ],
  "libraries": [],
  "pending": [],
  "returns": {},
  "timestamp": 1721739976,
  "chain": 8822,
  "commit": "995e913"
}