{
  "transactions": [
    {
      "hash": "0x3a9de041860384dbadc9c121d03e6d9f3a8bb03c73f0f668e0cf8026858f8d94",
      "transactionType": "CALL",
      "contractName": null,
      "contractAddress": "0xaed6dc9b5ae8ac8149403d2659de1239655e6d4a",
      "function": "updateAll(uint256[])",
      "arguments": [
        "[0, 1, 2, 3]"
      ],
      "transaction": {
        "from": "0xded212b8bab662b98f49e757cbb409bb7808dc10",
        "to": "0xaed6dc9b5ae8ac8149403d2659de1239655e6d4a",
        "gas": "0x21d8f",
        "value": "0x0",
        "input": "0x04093c5b000000000000000000000000000000000000000000000000000000000000002000000000000000000000000000000000000000000000000000000000000000040000000000000000000000000000000000000000000000000000000000000000000000000000000000000000000000000000000000000000000000000000000100000000000000000000000000000000000000000000000000000000000000020000000000000000000000000000000000000000000000000000000000000003",
        "nonce": "0xa9",
        "chainId": "0x2276"
      },
      "additionalContracts": [],
      "isFixedGasLimit": false
    },
    {
      "hash": "0x3747f89a4af991f54df7caf99b9d6769c4680af432bcdeb3898789bd1b6e950c",
      "transactionType": "CALL",
      "contractName": null,
      "contractAddress": "0xaed6dc9b5ae8ac8149403d2659de1239655e6d4a",
      "function": "setLumPerSecond(uint96)",
      "arguments": [
        "54000000000000000"
      ],
      "transaction": {
        "from": "0xded212b8bab662b98f49e757cbb409bb7808dc10",
        "to": "0xaed6dc9b5ae8ac8149403d2659de1239655e6d4a",
        "gas": "0xbc9d",
        "value": "0x0",
        "input": "0xff1b3bb600000000000000000000000000000000000000000000000000bfd8b6c1df0000",
        "nonce": "0xaa",
        "chainId": "0x2276"
      },
      "additionalContracts": [],
      "isFixedGasLimit": false
    }
  ],
  "receipts": [
    {
      "status": "0x1",
      "cumulativeGasUsed": "0xbee9",
      "logs": [],
      "logsBloom": "0x00000000000000000000000000000000000000000000000000000000000000000000000000000000000000000000000000000000000000000000000000000000000000000000000000000000000000000000000000000000000000000000000000000000000000000000000000000000000000000000000000000000000000000000000000000000000000000000000000000000000000000000000000000000000000000000000000000000000000000000000000000000000000000000000000000000000000000000000000000000000000000000000000000000000000000000000000000000000000000000000000000000000000000000000000000000",
      "type": "0x0",
      "transactionHash": "0x3a9de041860384dbadc9c121d03e6d9f3a8bb03c73f0f668e0cf8026858f8d94",
      "transactionIndex": "0x0",
      "blockHash": "0xcbcaf1b32546007c8cc48312a40ed0f35ef3f79184dc19829f3af6976794d4e9",
      "blockNumber": "0x4866d",
      "gasUsed": "0xbee9",
      "effectiveGasPrice": "0x2540be400",
      "from": "0xded212b8bab662b98f49e757cbb409bb7808dc10",
      "to": "0xaed6dc9b5ae8ac8149403d2659de1239655e6d4a",
      "contractAddress": "0x0000000000000000000000000000000000000000"
    },
    {
      "status": "0x1",
      "cumulativeGasUsed": "0x675b",
      "logs": [
        {
          "address": "0xaed6dc9b5ae8ac8149403d2659de1239655e6d4a",
          "topics": [
            "0xdd8b7b258131f9326b8f16978dd54fbe5d1e19e6c80e176363ed728ff4e12ae0"
          ],
          "data": "0x00000000000000000000000000000000000000000000000000bfd8b6c1df0000",
          "blockHash": "0x7b9f388ba5ff9ef6a69cffc68af7fb236f8373cbe93beeb96e6d7db0e045f8c7",
          "blockNumber": "0x4866e",
          "transactionHash": "0x3747f89a4af991f54df7caf99b9d6769c4680af432bcdeb3898789bd1b6e950c",
          "transactionIndex": "0x0",
          "logIndex": "0x0",
          "removed": false
        }
      ],
      "logsBloom": "0x08000000000000000000000000000000000000000000000000000000000000000000000000000000000000000000001000000000000000000000000000000000008000000000000000000000000000000000000000000000000000000000000000000000000000000000000000000000000000000000000000000000000000000000000000000000000000000000000000000000000000000000000000000000000000000000000000000000000000000000000000000000000000000000000100000000000000000000000000000000000000000000000000000000000000000000000000000000000000000000000000000000000000000000000011000000",
      "type": "0x0",
      "transactionHash": "0x3747f89a4af991f54df7caf99b9d6769c4680af432bcdeb3898789bd1b6e950c",
      "transactionIndex": "0x0",
      "blockHash": "0x7b9f388ba5ff9ef6a69cffc68af7fb236f8373cbe93beeb96e6d7db0e045f8c7",
      "blockNumber": "0x4866e",
      "gasUsed": "0x675b",
      "effectiveGasPrice": "0x2540be400",
      "from": "0xded212b8bab662b98f49e757cbb409bb7808dc10",
      "to": "0xaed6dc9b5ae8ac8149403d2659de1239655e6d4a",
      "contractAddress": "0x0000000000000000000000000000000000000000"
    }
  ],
  "libraries": [],
  "pending": [],
  "returns": {},
  "timestamp": 1720721208,
  "chain": 8822,
  "commit": "277afeb"
}