{
  "transactions": [
    {
      "hash": "0xf012fe8da36efd17e9da380bfea851f540956f085fc477d52dbd5a12ce2ddf29",
      "transactionType": "CALL",
      "contractName": null,
      "contractAddress": "0x9112a7Ae4a5f03aC1CB1306de3a591fCa380816D",
      "function": "setLumPerSecond(uint96)",
      "arguments": [
        "1000000000000000000"
      ],
      "transaction": {
        "type": "0x00",
        "from": "0xded212b8bab662b98f49e757cbb409bb7808dc10",
        "to": "0x9112a7ae4a5f03ac1cb1306de3a591fca380816d",
        "gas": "0x1d63a",
        "value": "0x0",
        "data": "0xff1b3bb60000000000000000000000000000000000000000000000000de0b6b3a7640000",
        "nonce": "0xb3"
      },
      "additionalContracts": [],
      "isFixedGasLimit": false
    }
  ],
  "receipts": [
    {
      "transactionHash": "0xf012fe8da36efd17e9da380bfea851f540956f085fc477d52dbd5a12ce2ddf29",
      "transactionIndex": "0x0",
      "blockHash": "0x984dd858e20914aec62fa2d8873a32c1a2e993d8b9cb1e8c22c7027863d09462",
      "blockNumber": "0xb856",
      "from": "0xdeD212B8BAb662B98f49e757CbB409BB7808dc10",
      "to": "0x9112a7Ae4a5f03aC1CB1306de3a591fCa380816D",
      "cumulativeGasUsed": "0xd194",
      "gasUsed": "0xd194",
      "contractAddress": "0x0000000000000000000000000000000000000000",
      "logs": [
        {
          "address": "0x9112a7Ae4a5f03aC1CB1306de3a591fCa380816D",
          "topics": [
            "0xdd8b7b258131f9326b8f16978dd54fbe5d1e19e6c80e176363ed728ff4e12ae0"
          ],
          "data": "0x0000000000000000000000000000000000000000000000000de0b6b3a7640000",
          "blockHash": "0x984dd858e20914aec62fa2d8873a32c1a2e993d8b9cb1e8c22c7027863d09462",
          "blockNumber": "0xb856",
          "transactionHash": "0xf012fe8da36efd17e9da380bfea851f540956f085fc477d52dbd5a12ce2ddf29",
          "transactionIndex": "0x0",
          "logIndex": "0x0"
        }
      ],
      "status": "0x1",
      "logsBloom": "0x00000000000000000000000000000000000000000000000000000000000000000000000000000000000000000000001000000000000000000000000000000000000000000000000000000000000000000000080000000000000000000000000000000000000000000000000000000000000000000000000000000000000000000000000000000000000000000000000000000000000000000000000000000000000000000000000000000000000000000000000000000000000000000000000000000000000000000000000000000000000000000000000000000000010000000000000000000000000000004000000000000000000000000000000011000000",
      "type": "0x0",
      "effectiveGasPrice": "0x2540be400"
    }
  ],
  "libraries": [],
  "pending": [],
  "returns": {},
  "timestamp": 1715947092,
  "chain": 1075,
  "commit": "21a4e97"
}